:100000000C9434000C943E000C943E000C943E0082
:100010000C943E000C943E000C943E000C943E0068
:100020000C943E000C943E000C943E000C94D600C0
:100030000C943E000C943E000C943E000C943E0048
:100040000C943E000C943E000C94FE000C943E0078
:100050000C943E000C943E000C943E000C943E0028
:100060000C943E000C943E0011241FBECFEFD8E04C
:10007000DEBFCDBF0E9440000C9417010C9400001D
:1000800008E00EBF0FEF0DBF01E004B908E90093CF
:10009000C1000EE00093C20007E60093C40000E038
:1000A000009380000CE00093810002E000936F0059
:1000B00008E1009389000AE600938800E0E0F1E09F
:1000C00096D0008394D0018392D0028390D0038392
:1000D0005FD066277894FFCF4081318122811381E0
:1000E00043954A3011F440E033953C3311F430E04D
:1000F00023952C3311F420E01395183109F443D0E3
:10010000408331832283138344813581268160FFBC
:100110000DC043954A3011F440E033953C3311F45F
:1001200030E023952C3311F42ED06D7F61FDFCCF90
:10013000448335832683478130852185128563FD7D
:1001400017D062FF10C0403069F4303049F42030DD
:1001500029F4103009F407C02CE31A953CE32A95E2
:100160004AE03A954A954783308721871287089558
:100170004385348525851685677F089543873487B1
:1001800025871687089510E020E030E040E00895CC
:1001900000E00483058306830783008702870387C3
:1001A0000487068701E001870587089595DF5FEFE3
:1001B00017D0508115D0518113D0528111D0538165
:1001C0000FD054810DD055810BD0568109D0578165
:1001D00007D0508505D0518503D0528501D01895A0
:1001E0000091C00005FFFCCF5093C6000895009118
:1001F000C00007FFFCCF0091C60008950091C60023
:1002000001FD686002FD646003FD6B7F04FD6260B8
:1002100005FD616006FD6E7F00FF08C0E8DF102F5E
:10022000E6DF202FE4DF302F40E0A8DF1895F894B8
:02023000FFCFFE
:00000001FF
